:020000040800F2
:100000009814002045010008E33100083D2D000848
:10001000E1310008C5020008913900080000000025
:100020000000000000000000000000002532000871
:10003000F90D000800000000053200082732000812
:100040005F0100085F0100085F0100085F01000810
:100050005F0100085F0100085F0100085F01000800
:100060005F0100085F0100085F0100084903000804
:100070005F010008550300085F01000861030008E4
:100080006D0300085F0100088D0100085F01000892
:100090005F0100085F0100085F0100085F010008C0
:1000A0005F0100085F0100085F0100085F010008B0
:1000B0005F010008F9320008053300085F010008FD
:1000C0005F0100085F0100085F01000809320008B5
:1000D0005F010008493900086139000879390008D2
:1000E0005F0100085F0100085F0100085F01000870
:1000F0005F0100085F0100085F0100085F01000860
:100100005F0100085F010008113300085F0100086B
:100110005F0100085F0100085F0100085F0100083F
:100120005F0100085F0100085F0100085F0100082F
:10013000DFF80CD000F018F800480047CD3900086F
:10014000981400200648804706480047FEE7FEE76F
:10015000FEE7FEE7FEE7FEE7FEE7FEE7FEE7FEE777
:10016000B132000831010008064C074D06E0E06896
:1001700040F0010394E8070098471034AC42F6D3EE
:10018000FFF7DAFFC83A0008E83A0008014800F033
:10019000C6BE00005401002070B5044600688168A6
:1001A000C943C9071BD1816821F00101816001F0B9
:1001B000D9FB05460EE001F0D5FB401B022809D90A
:1001C000A06A40F01000A062E06A40F00100E06226
:1001D000012070BD20688068C043C007EBD00020BC
:1001E00070BD10B50146406A826A12F0500F05D00A
:1001F000006A026BBDE8104008461047816A41F46E
:100200000071816201688968C1F3424107290CD1FC
:10021000C16851B9816A21F480718162816AC9041F
:1002200003D4816A41F00101816200F075FE10BDC6
:1002300010B5406A816A41F040018162C16A41F0B3
:100240000401C16200F06AFE10BD10B5406A00F002
:1002500064FE10BDF8B5002604460096006881686B
:10026000C943C90727D0816841F001018160134863
:1002700013490068B0FBF1F000E0401E0090002838
:10028000FBD101F06FFB054610E001F06BFB401B5A
:1002900002280BD9A06A40F01000A062E06A40F08A
:1002A0000100E06284F824600120F8BD20688068C5
:1002B000C043C007E9D10020F8BD00002C00002099
:1002C00040420F00FEE7000010B51D491D4C002004
:1002D00051F820206369401C1A44C0B2626151F891
:1002E00020202369401C1A44C0B222610A28EFD39F
:1002F00060690521B0FBF1F0B2FBF1F1C4E9041033
:1003000080B200F063FD208A80B200F067FD606972
:1003100040F2FF41884201D2012000E0002000F0BD
:100320004FFD2069B0F5A06F03D300F0ABF80120BA
:1003300002E000F09FF80020BDE8104000F03ABD58
:100340005403002000000020014801F069B80000BB
:1003500084010020014801F063B800001003002070
:10036000014801F05DB8000088020020014801F05A
:1003700057B80000CC02002030B590F8405001245E
:10038000AC40C56B6C60046863604368102B036805
:1003900003D099600068C26030BD9A600068C16097
:1003A00030BD000000224FF40051014801F0D5BAE1
:1003B000000C014001225103014801F0CEBA0000B7
:1003C000000C01404FF40051014801F0C2BA000096
:1003D000000C01404FF48051014801F0BABA00000E
:1003E000000C014001225103014801F0B6BA00009F
:1003F000001001404FF40051014801F0AABA00007A
:1004000000100140074810B501680024C86840F09A
:100410001000C8604FF400720349024802F0E2FB8A
:10042000204610BDC80100209003002038B50068A8
:100430000068C043C00617D40C4C206801684068AF
:100440000090204602F031FA606B0068406808496D
:10045000C0F500704880012001F8040B42022046DC
:10046000BDE8384002F0BEBB38BD0000C801002026
:100470008C03002000222021014801F06EBA000008
:10048000000C014001222021014801F066BA000061
:10049000000C01402DE9FC41224A0026224FD07970
:1004A000DFF888C0224D3346012410B1D168642999
:1004B00003D23B708CF800302C701A4992F806E099
:1004C000097ABEF1000F08D041B11A49D1608CF809
:1004D00000403C702B70137200E0F9B9F0B128783D
:1004E000E0B91549D068884218D25B208DF8000029
:1004F000B1208DF801008DF80430B0208DF8050092
:100500005D208DF802408DF806008DF803304FF61F
:10051000FF720721684600F0EDFB2C703046BDE805
:10052000FC8100007C0300201C0000200100002052
:100530001D000020F45F01009C5D010002491420B1
:1005400088800020C86070477C0300202DE9F05FA0
:10055000654D4FF00009687AE8B300F04FFCFF28C2
:100560003FD02978022601F0F00CA5F15002DFF807
:100570007CB101230024DFF878A14FF0030802F1D9
:100580008007BCF1D00F76D006DCBCF1B00F2BD0C9
:10059000BCF1C00F08D141E04FF0FF08BCF1E00F03
:1005A0007DD0BCF1F00F7BD04FF004092C72AC80F1
:1005B000EC806C729AF80000554660B14A484FF6DC
:1005C000FF7632460721A03000F0A2FB4648072103
:1005D0003246A03000E004E000F0B8FB2C708BF84D
:1005E00000404846BDE8F09F4FF0AB0C07F800C054
:1005F000B12902D0B2290CD010E095F801C0BCF1AD
:10060000010F0BD139180B7481F850308BF8003082
:1006100067E095F801C0BCF1010F0AD04FF0AC0CB7
:1006200007F800C0C12916D0C22917D0C32919D094
:100630001DE039180E7481F8204081F850302C49A3
:100640008AF800308AF80100891E16540880107C50
:10065000401C1074AAE739180B7401E039180E74A5
:1006600013542CE0391881F81080F9E703E038447E
:1006700080F850309AE74FF0AD0C07F800C0D02951
:10068000F5D139180C7495F801C0BCF1010F10D0E8
:10069000BCF1020F10D0BCF1030F14D001E015E043
:1006A00016E0BCF1040FE2D14FF0040C81F820C039
:1006B00004E081F8203001E081F820601654117CBC
:1006C000491C1174D3E781F82080F7E7AE2100E0E0
:1006D000AF213954391881F8108081F8204081F811
:1006E00050301654B3E70000F40900201C0000202D
:1006F000200000202DE9FC47354D4FF00009687AB5
:10070000002861D000F07AFBFF285DD02A7802240F
:1007100002F0F00100262F4FA5F160084FF6FF7A96
:10072000B0293FD0C0293DD00123D02902D0E029F3
:1007300038D116E026494FF0AD0C2031D22A01F80D
:1007400000C003D10A1814743B707870014481F81A
:10075000504008F8003098F81000401C88F810004D
:1007600020E0687810B1012803D004E08DF8036020
:1007700001E08DF803305B208DF800005D208DF8DE
:100780000500AB208DF801008DF8024003210DF12A
:10079000010003F00EF98DF8040052460621684668
:1007A00000F0A8FA2E72AE80EE806E72387858B1E2
:1007B0003E7052461F21084800F09CFA04497878A0
:1007C0004031465408F800404846BDE8FC87000028
:1007D000040A002023000020940C00202DE9F041A1
:1007E0002D4D4FF00008687AA0B300F007FBFF28FA
:1007F0004ED02A78022702F0F0010024A5F17006FD
:10080000B02931D0C0292FD005F110034FF0010CD1
:10081000D02902D0E02927D113E0AD211954D22AE2
:1008200005D119180F741D4981F800C048701A18B5
:10083000032182F8501006F800C0307C401C307450
:1008400012E0154815491038491F407818B10128A1
:1008500006D009E01CE00888184480F8204003E036
:100860000888184480F820C02C72AC80EC806C7230
:100870000A4DED1C287858B12C704FF6FF721F21DD
:10088000074800F037FA0449687830314454375447
:100890004046BDE8F0810000140A0020230000203B
:1008A000940E00202DE9F05F044610781E46154690
:1008B0004FF00009C00714D0CA4685F800A0687937
:1008C0000A22B2EB101F0DD1087D052809D828791E
:1008D0005B2806D1687A5D28FBD10321681D03F0EF
:1008E00068F8B5E0617A0029FBD1217AA2884FF03F
:1008F0005D0B914237D2A9B3002706F105082DE020
:10090000E819237A027903F80820217A491CCAB22F
:100910002272A18891421FD14279A27080795D280C
:1009200006D084F808A0A4F804A0A4F806A08FE0DC
:10093000C91DE180C91E89B2701C03F03AF8A17884
:100940008142EED1227AB11D02F80800227A0120FC
:1009500002F801B0E66060727F1CBFB26888B842DE
:10096000CED875E0FFE7E188002971D129795B29AC
:100970006ED12070A8796070287AE9794FF05B0811
:1009800000EB01200004000CA08001D005275CE0F2
:10099000A87A5D285CD1687AA0700720E08086F88C
:1009A0000080207870706078B070E879F070287AF4
:1009B00030710421701C02F0FCFF0146A0788842CF
:1009C00004D05046A4F806A0BDE8F09F707186F8E8
:1009D00006B035E0E8190079F055207A401CC0B225
:1009E0002072A18881422ED1C1B205F10A00085CB3
:1009F0005D2805D0A4F804A084F808A0A4F806A0F7
:100A0000E8194079A070A088C01DE080C01E81B2A6
:100A1000681D02F0CEFFA178814202D0A4F806A0A2
:100A200016E086F80080207870706078B070E87901
:100A3000F070287A3071F019A178417080F802B016
:100A40000120607204E07F1CBFB26888B842C1D840
:100A50004846B9E7034B044AA3F1DF0101F13F0027
:100A6000FFF720BF940A00208C030020034B044AA8
:100A7000A3F2CA2101F13A00FFF714BF940C002041
:100A800090050020034B044AA3F2B54101F1350063
:100A9000FFF708BF940E002094070020094810B506
:100AA000007838B1FFF78EFCFFF794FCBDE81040EA
:100AB000FFF7A0BCFFF77EFCFFF774FCBDE8104019
:100AC000FFF790BC1C000020704700000A4810B5DA
:100AD00001680024C86840F01000C8604FF400723C
:100AE0000649054802F07EF800220221044800F081
:100AF00034FF204610BD00000802002094050020AD
:100B00000010014038B500680068C043C00617D423
:100B10000C4C2068016840680090204601F0C5FE3A
:100B2000606B006840680849C0F50070488001208B
:100B300001F8040B42022046BDE8384002F052B8EA
:100B400038BD0000080200209005002010B586B0D6
:100B50005B208DF80000D1208DF8010001208DF878
:100B6000020000208DF803000A208DF804005D20AB
:100B70008DF81000104A00206946135C0C18401CC8
:100B8000C0B263710A28F8D39DF801008DF80F00F8
:100B900000200B189DF80F209B78401C5A40C0B2D3
:100BA0008DF80F200D28F4D34FF6FF731122034860
:100BB00002F066F806B010BD98090020C8010020B8
:100BC0000A4810B501680024C86840F01000C860E9
:100BD0004FF400720649054802F004F80022012192
:100BE000044800F0BAFE204610BD00004802002074
:100BF000980700200010014038B500680068C04325
:100C0000C00617D40C4C206801684068009020464C
:100C100001F04BFE606B006840680849C0F5007049
:100C20004880012001F8040B42022046BDE838400C
:100C300001F0D8BF38BD0000480200209407002012
:100C40002DE9FC472A4F4FF000084446387CE0B3BA
:100C50005B208DF800005D208DF8050007F180090C
:100C60004FF6FF7A0026385D02283AD119F80410B1
:100C70008DF8011009EB04050321287C8DF8020092
:100C800095F820008DF803000DF1010002F091FEAF
:100C90008DF8040095F85000012806D185F85060C1
:100CA00052460621684600F025F895F850000228C3
:100CB00006D185F8506052460621684600F028F8B3
:100CC00095F85000032808D100E00EE085F8506048
:100CD00052460621684600F039F83E55387C401EE1
:100CE0003874641CE4B2102CBDD34046BDE8FC87C8
:100CF000A40900200A4610B501464FF6FF730348C9
:100D000001F0BEFF002800D0012010BDC801002066
:100D10002DE9F0410B4C15460E46074601220221F3
:100D2000204600F01AFE2B4632463946064801F0AE
:100D3000A7FF054600220221204600F00EFE2846AD
:100D4000BDE8F08100100140080200202DE9F041CB
:100D500015460B4C0E46074601221146204600F070
:100D6000FCFD2B4632463946064801F089FF054610
:100D700000220121204600F0F0FD2846BDE8F08168
:100D8000001001404802002000B587B06021CDE985
:100D9000001000200290024604906946044801F0C9
:100DA0004CFC0021024801F0EBFC07B000BD000044
:100DB0009400002001490871704700009809002044
:100DC0000149487170470000980900200249C0F3AA
:100DD00003228A70C8707047980900200249C0F346
:100DE00003220A70487070479809002001498871F1
:100DF000704700009809002070470000FF23054954
:100E000000200A5C002A04D0401CC0B21028F8D38D
:100E100018467047A409002070470000F8B5002369
:100E2000009390F824201C46012A12D0012280F859
:100E300024204A681F26072A0DD205686F6B521EB0
:100E400002EB82029640B7430E68964037436F63C9
:100E500019E00220F8BD05680D2A0AD22F6BD21FB7
:100E600002EB82029640B7430E68964037432F63E9
:100E700009E0EF6A0D3A02EB82029640B7430E6832
:100E800096403743EF620A68072605680A2A0AD3A4
:100E9000EF680A3A02EB42029640B7438E689640EA
:100EA0003743EF6008E02F6902EB42029640B743F8
:100EB0008E68964037432F610A68102A01D0112AA4
:100EC00020D1124D0268AA4217D195682D0219D47B
:100ED000956845F4000595600968102912D10C4900
:100EE0000C4A0968B1FBF2F101EB8101490000E015
:100EF000491E00910029FBD104E0816A41F02001E4
:100F00008162012380F824401846F8BD0024014086
:100F10002C00002040420F0070477047704710B50A
:100F2000044600684168890626D50168890723D5EB
:100F3000A16AC90603D4A16A41F40071A162816863
:100F4000C1F34241072910D1E16871B9416821F02C
:100F500020014160A06A20F48070A062A06AC004F1
:100F600003D4A06A40F00100A0622046FFF7D4FF3E
:100F700021686FF0120008602068416809062ED5CC
:100F8000016849072BD5A16AC90603D4A16A41F4B7
:100F90000051A1628168C1F30231072909D041687B
:100FA000490515D48168C1F34241072910D1E16890
:100FB00071B9416821F080014160A06A20F480503D
:100FC000A062A06AC00503D4A06A40F00100A0623C
:100FD0002046FFF721FF21686FF00C0008602068B1
:100FE000416849060DD50068C0070AD0A06A40F4E0
:100FF0008030A062204600F095F821686FF0010073
:10100000086010BD2DE9F04104004FF000057FD0CD
:10101000A06A002628B9E66284F82460204600F021
:1010200083F82046FFF7B8F8A16AC90600D420B1BA
:10103000A06A40F01000A0626AE0A16A21F4885121
:1010400041F00201A162334923688B42E16904D176
:10105000B1F5402F01D14FF40021E7684FF4807CB7
:1010600041EA470261680A43A168614508D0012945
:1010700006D00021D4F814E0BEF1010F02D00AE03E
:101080006146F7E7C7B1A76A47F02007A762E76A9A
:1010900047F00107E7625F6827F469470F435F6025
:1010A00021688B681C4F3B4013438B60A1686145EE
:1010B0000BD0012909D00CE0DFF860E0A7690EEB46
:1010C00047370F4347F40061E5E7218A0D05A5F591
:1010D00080152168CB6A23F470032B43CB6221680F
:1010E00089680F4B1940914208D1E662A16A21F04C
:1010F000020141F00101A162BDE8F081A06A20F087
:10110000020040F01000A062E06A40F00100E062DE
:101110000120F1E7003C0140FDF7E1FF00E0FFFFA7
:10112000FE0E1FFF7047000030B5054600681849E5
:1011300085B0884229D11748816941F400718161E5
:101140008069694600F40070049004200090032038
:101150000190114800F002FB114C104880212060E2
:1011600000206060C4E90201890021618900616199
:101170002021C4E90610204600F076FA18B17C213F
:1011800008A002F006FC2C62656205B030BD0000CC
:1011900000240140001002400010014008000240FD
:1011A000840100202E2E2F5372632F6164632E63FF
:1011B000000000002DE9F047894604463B490068DD
:1011C0003B4F0E1D9046884201D0B84207D130688F
:1011D00010F4702F03D001252846BDE8F08794F85D
:1011E000240001280CD0012084F824002046FFF7B9
:1011F00031F805004FF0000104D084F82410EBE72B
:101200000220EAE7A06A40F60162904340F4807051
:10121000A0622068B84218D1326812F4702F14D03E
:10122000A06A40F48010A0623068400505D5A06A2D
:1012300020F4005040F48050A062A06AC0040AD597
:10124000E06A20F00600E06206E0A26A22F4801262
:10125000A2624068E9E7E16284F82410216A154837
:101260008862216A1448C862216A144808632168A8
:101270006FF0020008602068816841F4807181602D
:10128000216843464A464C31206A00F02FFA206814
:101290008168C1F342410729816803D041F480117C
:1012A000816099E741F4A001FAE7000000240140C1
:1012B00000280140E30100084B0200083102000849
:1012C00001680A6822F00E020A6001680A6822F0CA
:1012D00001020A6090F84020012303FA02F1C26B78
:1012E000516080F82130002180F8201008467047B6
:1012F0002DE9F05F90F821100024022903D0042189
:101300008163012485E001680A6822F00E020A6008
:1013100001680A6822F001020A603F4E3E4FB21592
:10132000DFF8F4C0DFF8F090DFF8ECA0DFF8E8B009
:10133000DFF8E4E00168783F13011502ACF1640CBA
:10134000A9F15009AAF13C0AABF1280BAEF1140E39
:101350004FF48018B14227D9B9420ED0614512D05E
:1013600049451DD0514518D0594518D0714501D176
:10137000424615E0294EB14201D1012210E0274E2C
:101380001436B14201D110220AE0244E2836B1426F
:1013900006D0224A3C32914201D11A4600E02A4648
:1013A0001E49091F0A602BE0B94213D0614517D0CE
:1013B000494522D051451DD059451DD0714501D117
:1013C00042461AE0B14202D14FF0807215E0134E4E
:1013D000B14201D1012210E0104E1436B14201D1C8
:1013E00010220AE00D4E2836B14206D00B4A3C329C
:1013F000914201D11A4600E02A46074980394A60E5
:10140000012180F82110002180F82010416B01B1EA
:1014100088472046BDE8F09F800002400804024053
:101420002DE9F05FC16B0B6801680A68046C4FF02E
:10143000040808FA04F8844D844E854FDFF814C27E
:10144000DFF81492DFF814A2DFF814B2DFF814E228
:1014500018EA030F65D05FEA427862D50A689206FF
:1014600003D40A6822F004020A60DFF8F0814FF426
:101470008062016808F1140813011402414524D95F
:10148000A9420DD0B1420FD0B9421AD0614515D052
:10149000494515D0514501D1120312E0594501D1FA
:1014A00004220EE0714501D140220AE06D4D143551
:1014B000A94206D06B4A2832914201D11A4600E077
:1014C00022466749091F0A6029E0A94213D0B142A8
:1014D00015D0B94220D061451BD049451BD051459C
:1014E00002D14FF4800217E0414502D14FF08062F3
:1014F00012E0594501D104220EE0714501D140228C
:101500000AE0584D1435A94206D0564A2832914275
:1015100001D11A4600E022464B4908394A60C16AA7
:1015200071E04FF0020808FA04F818EA030F70D0CF
:101530005FEA82786DD50A68920606D40A6822F0BE
:101540000A020A60012180F82110DFF810814FF4AF
:101550000072016808F1140813011402414524D9EE
:10156000A9420DD0B1420FD0B9421AD0614515D071
:10157000494515D0514501D1120312E0594501D119
:1015800002220EE0714501D120220AE0354D1435CA
:10159000A94206D0334A2832914201D11A4600E0CE
:1015A00022462F49091F0A6029E0A94213D0B142FF
:1015B00015D0B94220D061451BD049451BD05145BB
:1015C00002D14FF4001217E0414502D14FF00072F2
:1015D00012E0594501D102220EE0714501D12022CD
:1015E0000AE0204D1435A94206D01E4A2832914205
:1015F00001D11A4600E02246134908394A60002109
:1016000080F82010816A00291CD0BDE8F05F0847EF
:10161000FFE70825A5401D4214D0120712D50A681D
:1016200022F00E020A6090F84020C36B012101FAFB
:1016300002F25A60816380F82110002180F82010A6
:10164000016BE0E7BDE8F09F080002401C0002408B
:101650003000024044000240580002406C0002404A
:10166000080402401C04024030B560B11C4B016804
:101670001422994209D21B4B0B44B3FBF2F29200A5
:101680000264194A0AE0012030BD154B5B420B444D
:10169000B3FBF2F292000264114A083AC2630222DA
:1016A00080F821200A6843F6F0739A43F0E9013488
:1016B0002343D0E902452C4323430469234344696F
:1016C00023438469234313430B60002141628162F9
:1016D000C16201634163012242770177084630BD50
:1016E00008040240F8FFFDBF0000024070B5044648
:1016F00090F82000002501280CD0012084F820005B
:1017000094F821600020012E06D084F820000225E4
:10171000284670BD022070BD022684F82160A063B7
:101720002068066826F0010606602046FEF724FEC3
:10173000E06A00282068016802D041F00E0106E04E
:1017400021F0040101602068016841F00A01016094
:101750002068016841F001010160D9E72DE9F84FE7
:10176000DFF8BC91002309F1040A0AF1040B1C46BE
:101770004FF00F080BF1040E01270A68A7403A400A
:10178000BA4272D1DFF89CC14D68A5EB0C066545E5
:101790002BD00DDC032D34D005DC35B3012D19D051
:1017A000022D2FD11BE0112D16D0122D2AD119E0B8
:1017B000B6F5881F19D006DCB6F5803F15D0B6F512
:1017C000801F1FD111E0B6F5001F0ED0B6F5041F23
:1017D00018D10AE0CB6815E0CB681B1D12E0CB687E
:1017E00008330FE0CB680C330CE08B682BB1012B76
:1017F0004FF0080303D0476104E0042302E00761CF
:1018000000E00023FF2A01D8064601E000F10406AB
:101810004FEA840501D9A5F12005376808FA05FCCF
:1018200027EA0C0703FA05F547EA050737604D6814
:10183000ED006ED53C4DAE6946F00106AE61AD6976
:1018400024F0030605F001050095384D7719BE68B0
:10185000A5072D0F08FA05FC26EA0C06DFF8D0C014
:10186000604503D14FF0000C25E052E0DFF8C4C022
:10187000604502D14FF0010C1DE0DFF8BCC06045AF
:1018800002D14FF0020C16E0DFF8B0C0604502D183
:101890004FF0030C0FE0DFF8A8C0604502D14FF015
:1018A000040C08E0DFF89CC0604502D14FF0050C45
:1018B00001E04FF0060C0CFA05FC4CEA060CC7F8E8
:1018C00008C04D68D9F80060ED034D4601D51643B8
:1018D00000E096432E604D68DAF80060AD0355468F
:1018E00001D5164300E096432E604D68DBF800609A
:1018F000ED025D4601D5164300E096432E604D682B
:10190000DEF80060AD02754601D5164300E096434F
:101910002E60641C102CFFF42FAFBDE8F88F000080
:1019200000040140000011100010024000000140BE
:1019300000080140000C014000100140001401406B
:1019400000180140001C01408068084000D00120C0
:101950007047C2684A40C26070470AB1016170476F
:101960000904FBE701488068704700003000002050
:10197000024881680278114481607047300000207D
:10198000074810B5016841F010010160032000F024
:1019900095F8002000F006F800F024F8002010BDB3
:1019A0000020024070B50D4D04464FF47A7128783E
:1019B000B1FBF0F00A490968B1FBF0F000F069FCF6
:1019C00048B9102C07D200222146501E00F056F8CC
:1019D00000206C6070BD012070BD00003000002050
:1019E0002C0000201D4808B5816941F0010181618A
:1019F000806900F001000090032000F05FF80022F1
:101A000011466FF00B0000F039F8002211466FF01C
:101A10000A0000F033F8002211466FF0090000F0D0
:101A20002DF800221146501F00F028F80022114620
:101A3000101F00F023F800221146901E00F01EF83F
:101A400000221146501E00F019F80549486820F0A0
:101A5000E06040F00070486008BD000000100240E7
:101A60000000014000F01F02012191404009800068
:101A700000F1E020C0F8001170470000F0B40E4BF8
:101A80001B68C3F30223C3F10704042C00D9042408
:101A90001D1D072D01D2002300E0DB1E012606FAE2
:101AA00004F56D1E0D409D409E40761E164045EA91
:101AB0000601F0BC01F096BB0CED00E0064A00F018
:101AC000070110684FF6FF03184040EA0120034960
:101AD00008431060704700000CED00E00000FA05BC
:101AE0002DE9F84304460078344FC00752D0F86916
:101AF0000025C00008D4F86940F08050F861F8690A
:101B0000012500F0805000902D480168C90511D4CE
:101B10000168804641F480710160FFF723FF0646AB
:101B200004E0FFF71FFF801B642822D8D8F80000CC
:101B3000C005F6D5386A10F4407020D0A18801F4B1
:101B4000407181421BD0386A1E49012220F4407046
:101B50000A6000220A603862C00710D0FFF702FF57
:101B6000064641F2883807E0FFF7FCFE811B41453D
:101B700002D90320BDE8F883386A8007F4D5386AB3
:101B8000616820F44070084338621DB1F86920F0A4
:101B90008050F8612078800705D57868A16820F426
:101BA0004040084378602078C00605D578686169B0
:101BB00020F48000084378600020DBE7001002403A
:101BC00000700040400442422DE9F047DFF83481C4
:101BD00004460E46D8F8000000F00700B0420CD2D0
:101BE000D8F8001021F007013143C8F80010D8F8E8
:101BF000000000F00700B04260D12078424F80071B
:101C000005D57868A16820F0F00008437860207856
:101C1000C00742D06068012816D03968022816D063
:101C2000890700294ADA796821F0030101437960C4
:101C3000FFF798FE0546606841F2883101280ED012
:101C40000228894617D024E039688903E9E7890129
:101C5000E7E7FFF787FE411B494501D916E08946B2
:101C60007868C0F381000128F3D116E0FFF77AFE0F
:101C7000411B49450AD87868C0F381000228F5D194
:101C80000BE0FFF76FFE411B494502D90320BDE879
:101C9000F087786810F00C0FF3D1D8F800104046A8
:101CA00001F00701B1420BD9016821F0070131436E
:101CB0000160006800F00700B04201D00120E6E7B3
:101CC0002078400705D57868E16820F4E060084393
:101CD00078602078000706D57868216920F4605084
:101CE00040EAC100786000F03BF87968074AC1F328
:101CF0000311515CC840064908600020FFF752FEFE
:101D00000020C4E70020024000100240B03A000862
:101D10002C00002001480068704700002C000020C3
:101D20000448054900684968044AC1F30221515C2E
:101D3000C84070472C00002000100240C03A000844
:101D40000448054900684968044AC1F3C221515C4E
:101D5000C84070472C00002000100240C03A000824
:101D600012A085B00FC88DE80F0014A0144B0068B6
:101D700004905968134801F00C02042A10D0082A74
:101D80000ED1C1F38342C9031DF802000AD5596878
:101D900004AAC1F34041515C0A4A5043B0FBF1F040
:101DA00005B0704708494843FAE7000002030405FC
:101DB000060708090A0B0C0D0E0F10100102000097
:101DC0000010024000127A0000093D002DE9F84F92
:101DD00004460078B64DC00747D06868C0F381005C
:101DE000012807D06868C0F38100022809D168681B
:101DF000C00306D52868800337D5606800286ED0F8
:101E000033E06068B0F5803F0BD010B1B0F5A02F83
:101E100011D0286820F480302860286820F48020C1
:101E200002E0286840F480302860606888B1FFF7DD
:101E300099FD064609E0286840F480202860F0E714
:101E4000FFF790FD801B642873D828688003F7D5BE
:101E50000BE0FFF787FD064604E0FFF783FD801BDC
:101E60006428F1D828688003F7D42078DFF844820A
:101E700080074FF0010A4FF0000939D5686810F06B
:101E80000C0F07D06868C0F38100022809D1686888
:101E9000C00306D42868800713D5206901281ED105
:101EA0000FE02069A8B1C8F800A0FFF75BFD064667
:101EB00004E0FFF757FD801B0228C5D8286880077B
:101EC000F7D52868616920F0F80040EAC100286071
:101ED0000EE0C8F80090FFF745FD064605E0E5E096
:101EE000FFF740FD801B022823D828688007F7D41D
:101EF000207800072CD57049A069D8B1C1F800A09E
:101F0000FFF730FD064604E0FFF72CFD801B02289A
:101F10000FD8686A8007F7D568484FF4FA5100680F
:101F2000B0FBF1F0009000BF0098411E0091FAD282
:101F30000EE07CE0C1F80090FFF714FD064604E0D7
:101F4000FFF710FD801B022871D8686A8007F7D45C
:101F5000207840075BD5E8690027C00008D4E8690D
:101F600040F08050E861E869012700F0805000905F
:101F700053480168C90511D40168834641F4807152
:101F80000160FFF7EFFC064604E0FFF7EBFC801B67
:101F900064284CD8DBF80000C005F6D5E0680128BD
:101FA0000AD008B1052813D0286A20F00100286261
:101FB000286A20F0040002E0286A40F0010028624C
:101FC000E06841F2883B88B1FFF7CCFC064609E0A7
:101FD000286A40F004002862EEE7FFF7C3FC811B8B
:101FE00059455BD8286A8007F7D50BE0FFF7BAFCA4
:101FF000064604E0FFF7B6FC811B59454ED8286A17
:102000008007F7D41FB1E86920F08050E861E069EB
:10201000A8B36968C1F38101022947D00228484664
:1020200006D0C8F86000FFF79DFC044639E035E0B3
:102030004746C8F86000FFF795FC064604E0FFF746
:1020400091FC801B022829D828688001F7D4206AD7
:10205000B0F5803F05D16868A16820F400300843DE
:102060006860D4E908010843696821F474110843E1
:102070006860C7F860A0FFF775FC044605E013E050
:10208000FFF770FC001B022808D828688001F7D5EC
:102090000AE0FFF767FC001B022802D90320BDE815
:1020A000F88F28688001F4D40020F8E70120F6E7D3
:1020B0000010024000004242800442422C000020F6
:1020C000007000407047000038B504460068426860
:1020D00081684B0605D4CB0703D0530601D5216C8C
:1020E00004E08B0707D5130605D5616C01B02046C7
:1020F000BDE83040084711F0600F3FD093063DD552
:102100004B060AD594F85130032B34D0636D43F05D
:1021100004036365C36883680093890609D5616D0C
:1021200041F00101616581680091016821F0400181
:102130000160606D002821D02068416821F0E00135
:102140004160012084F85100900718D02068416850
:1021500021F0030141600C4DE06C18B14563E06C67
:10216000FFF7C6F8A06C002808D04563A06CBDE856
:102170003840FFF7BDB8C1688068009038BD204680
:10218000FFF7A0FF38BD00001532000870B504004D
:1021900005D00025A56294F8510010B104E001209B
:1021A00070BD204600F034F8022084F85100206809
:1021B000016821F040010160D4E901010843D4E93C
:1021C00003121143084361690843218B01F4007134
:1021D0000843E1690843216A0843A16A084321686A
:1021E0000860A069042101EA1040616A084321687F
:1021F00048602168E06A08612068C16921F40061D3
:10220000C1616565012084F85100002070BD0000A7
:1022100010B50068154986B0884224D114488169F8
:1022200041F4805181618069124C00F48050049027
:10223000A0200090022001900320039069462046D0
:10224000FFF78CFA4021009100210191029169462B
:102250002046FFF783FA002211462320FFF70EFCE9
:102260002320FFF7FFFB06B010BD00000030014047
:1022700000100240000801404FF0E02104280869E6
:1022800003D020F004000861704740F00400FAE732
:10229000704710B5401EB0F1807F01D3012010BD02
:1022A0004FF0E02460610F21601700F09BFF0020D9
:1022B000A06107202061002010BD10B5FFF7E8FFE6
:1022C00010BD7047704730B590F83C20012A20D0EF
:1022D000012380F83C30022280F83D2002685468D7
:1022E00024F070045460026854680D682C435460F4
:1022F0000268946824F080049460026894684968D5
:102300000C43946080F83D30002180F83C10084672
:1023100030BD022030BD10B5040003D094F83D005C
:1023200010B107E0012010BD002084F83C002046D9
:1023300000F00CF8022084F83D00211D206800F018
:10234000EDFF012084F83D00002010BD08B50068B5
:102350000B4A0C49904207D1C86940F00400C8619B
:10236000C86900F0040009E0074A904207D1C86933
:1023700040F00800C861C86900F00800009008BD7E
:102380000008004000100240000C00400168CA68CC
:1023900042F00102CA600068016841F00101016079
:1023A0000020704770B5044690F83C00012817D013
:1023B000012584F83C50022084F83D0020688268A2
:1023C00022F0770222F47F4282600868502836D0DB
:1023D0000DDC202858D005DC80B3102840D150E017
:1023E000022070BD302852D0402839D13EE060280C
:1023F0002DD070280BD0B0F5805F03D0B0F5005F12
:102400002ED110E02068816821F0070109E0CB6837
:10241000D1E90121206800F0D2FF2068816841F0F5
:10242000770181601CE0CB68D1E90121206800F0D0
:10243000C6FF2068816841F48041F2E71EE0CA6867
:102440004968206801F090F85021206806E0CA68C9
:102450004968206801F099F86021206800F0B9FF10
:1024600084F83D50002084F83C0070BDCA6849687B
:10247000206801F079F840212068EFE7002120680A
:10248000ECE710212068E9E720212068E6E7302109
:102490002068E3E7704770B50446006801694FF0B3
:1024A0000005C943890715D4C168C943890711D4F8
:1024B000E91E01610120207720688069800720469D
:1024C00002D0FFF7E7FF04E000F0B6F8204600F086
:1024D00055F9257720680169C943490717D4C168B0
:1024E000C943490713D46FF004010161022020772A
:1024F0002068806910F4407F204602D0FFF7CAFFB1
:1025000004E000F099F8204600F038F925772068BB
:102510000169C943090716D4C168C943090712D420
:102520006FF008010161042020772068C0698007EE
:10253000204602D0FFF7AEFF04E000F07DF8204611
:1025400000F01CF9257720680169C943C90617D432
:10255000C168C943C90613D46FF010010161082096
:1025600020772068C06910F4407F204602D0FFF732
:1025700091FF04E000F060F8204600F0FFF82577B6
:1025800020680169C943C90708D1C168C943C9079F
:1025900004D1891E0161204600F00EF9206801690E
:1025A000C943090609D4C168C943090605D46FF0B7
:1025B000800101612046FFF784FE20680169C9435C
:1025C000490609D4C168C943490605D46FF04001E2
:1025D0000161204600F068F920680169C943890655
:1025E0000BD4C168C943890607D46FF0200101618B
:1025F0002046BDE87040FFF765BE70BD1FB500689E
:102600000A49884211D110200090022001900390C5
:1026100069460748FFF7A2F80649486820F4406079
:1026200040F0E06040F4006048601FBD00040040DE
:10263000000C014000000140704770B5044690F85E
:102640003C000D4601280DD0012684F83C60022094
:1026500084F83D0042B1042A18D0082A2AD00C2A56
:102660004DD139E0022070BD206800F0BBFE20682B
:10267000816941F0080181612068816921F00401CC
:102680008161206881692A69114311E0206800F0A6
:10269000D9FE2068816941F4006181612068816907
:1026A00021F480618161206881692A6941EA0221FF
:1026B000816124E0206800F0FBFE2068C16941F0E0
:1026C0000801C1612068C16921F00401C16120686D
:1026D000C1692A69114311E0206800F01DFF2068DC
:1026E000C16941F40061C1612068C16921F4806160
:1026F000C1612068C1692A6941EA0221C16184F887
:102700003D60002084F83C0070BD10B5040003D08B
:1027100094F83D0010B107E0012010BD002084F8BE
:102720003C00204600F00CF8022084F83D00211DFA
:10273000206800F0F3FD012084F83D00002010BD6A
:1027400008B500680B49884212D10B48C16941F0B5
:102750000201C161C069002200F002000090114630
:102760001D20FFF78BF9BDE808401D20FFF77AB95F
:1027700008BD000000040040001002407047000047
:1027800010B504460068012200F00EFE08482168DA
:10279000814202D00748814203D1486C40F4004096
:1027A00048642068016841F001010160002010BD0B
:1027B000002C0140003401402DE9F04180463548AD
:1027C000354E01250168D8F800000024334F8142BE
:1027D00012D110213248FFF7B7F8307008B970787D
:1027E000E8B3F471B470B47135727C700020FEF7F8
:1027F000FDFABC70307870702A480168D8F8000083
:10280000814245D1B8694EF66021401CB8618842CA
:1028100001D97D71BC61F068502801D9401EF0607B
:10282000388941F28831401C80B23881884201D910
:102830003D703C81B889401C80B2B881C82801D95C
:10284000BD71BC813879401CC0B2387103281FD9D2
:102850007878C0B17889801C7881FD7017E0FFE737
:10286000F0790028C6D1B078401CC0B2B070B188F1
:102870008842BFD9B571B470F5717D700120FEF743
:10288000B5FABD70B6E74FF4E1607881FC703C7139
:10289000BDE8F081D40000207C030020000000206F
:1028A0000010014014010020704710B50446006874
:1028B000416994F83920C1F3C011212A0BD151B1DB
:1028C000416921F080014161206B08B1FEF7F8FCFD
:1028D000204600F0CAFE2068416994F83A20C1F30E
:1028E0008011222A0BD151B1416921F0400141618F
:1028F000606B08B1FEF7E4FC204600F0A8FE002063
:1029000010BD704770B5026804461068D1685369FD
:1029100010F00F0F50D003F0010501F4907635430D
:102920005DD0C20705D0CA0503D5E26B42F00102B3
:10293000E263420705D5DA0703D0E26B42F00202F8
:10294000E263820705D5DA0703D0E26B42F00402A6
:10295000E263020705D5DA0703D0E26B42F0080212
:10296000E263E26B002A33D0800604D5880602D5E4
:10297000204600F083FE20684069E16BC0F38010C0
:10298000090700D428B3204600F061FE20684169A1
:1029900049061AD5416921F040014161606BA0B13F
:1029A0001B494163606BFEF7A3FC002810D0606BED
:1029B000416BBDE870400847830610D58B060ED5E5
:1029C0002046BDE8704000F059BE2046FFF799FF51
:1029D00070BD2046FFF795FF0020E06370BD030641
:1029E00006D50B0604D52046BDE8704000F04ABF6E
:1029F0004006F3D54806F1D5D168204621F04001C4
:102A0000D160202184F8391000F097F970BD0000E2
:102A1000AF35000870B5040004D094F839000025E3
:102A200010B106E0012070BD84F83850204600F057
:102A300023F8242084F839002068C16821F400516B
:102A4000C160204600F066FE2068016921F49041D3
:102A500001612068416921F02A0141612068C16853
:102A600041F40051C160E563202084F8390084F806
:102A70003A00002070BD00002DE9F04104464E49A7
:102A80000068DFF830C1002502220323DFF82C8123
:102A90000F15802686B060452BD1886940F48040B0
:102AA00088618869039300F4804004904815CDE95B
:102AB000000269464046FEF751FECDE900756946C1
:102AC00040460295FEF74AFE3E4F3D48C7E90005E5
:102AD000C7E902563D617D61BD613846FD61FEF783
:102AE000C3FD08B1992161E067637C6206B0BDE86F
:102AF000F081DFF8D4C060452AD1C86940F40030C5
:102B0000C861C869694600F4003004900420CDE92A
:102B1000000203934046FEF721FE0820CDE90005A0
:102B2000694640460295FEF719FE264F2448443771
:102B30001430C7E90005C7E902563D617D61BD61FA
:102B40003846FD61FEF790FD0028CDD0C4212DE070
:102B5000DFF878C06045C9D1C86940F48020C861F9
:102B6000C869CDE9007200F48020CDE90330184F28
:102B700069463846FEF7F2FDF814CDE900056946CE
:102B800038460295FEF7EAFD0E4F0D488837283883
:102B9000C7E90005C7E902563D617D61BD61384660
:102BA000FD61FEF761FD00289ED0EF2109A000F035
:102BB000F0FE99E700380140001002400008014093
:102BC00058000240880200200044004000480040B5
:102BD000000C01402E2E2F5372632F757361727497
:102BE0002E63000037B5044690F83A0082B01346D1
:102BF00020283AD1039AAAB3A3B394F83800012845
:102C000033D0012084F83800A262A3850025E56353
:102C1000222084F83A00616B15488862616B154880
:102C2000C862616B14480863606B45632168606B20
:102C3000091DFEF75BFD206801684168009184F87A
:102C40003850C16841F48071C1602068416941F029
:102C5000010141612068416941F04001416100206A
:102C600005B030BDFFE70120FAE70220F8E70000D9
:102C70000936000845360008BF3500087047704720
:102C80002DE9F843044690F839001E4617460D46D4
:102C9000202850D1A5B19FB194F8380001284AD01E
:102CA000012084F838004FF00008C4F83C8021204F
:102CB00084F83900FEF756FEA7848146E78426E0B3
:102CC0000120BDE8F883E08C401EE084A0684B46FC
:102CD000B0F5805F4FF000024FF080012046009673
:102CE00003D000F000FEE8B90DE000F0FCFDC8B92B
:102CF00028882168C0F308004860206908B16D1C6D
:102D000005E0AD1C03E0216815F8010B4860E08C7C
:102D10000028D8D14B46002240212046009600F0E2
:102D2000E2FD08B10320CCE7202084F8390084F8C4
:102D300038800020C5E70220C3E77047FEE70000A7
:102D40003EB51A481849012501608915C0E90215E8
:102D50000021416102244FF460220461C26141609C
:102D6000FEF750F918B1452111A000F012FE0C2019
:102D7000CDE900050720029069460C48FEF74EF8A1
:102D800018B14F210AA000F004FE1020CDE9000484
:102D900069460648FEF742F8002803D0582104A0EF
:102DA00000F0F7FD3EBD000000240140540100206A
:102DB0002E2E2F5372632F6164632E630000000078
:102DC000054808B5416941F001014161406900F0E1
:102DD0000100009008BD0000001002402DE9F04104
:102DE000274886B0816941F010018161816901F055
:102DF00010010491816941F020018161816901F034
:102E000020010491816941F004018161816901F02F
:102E100004010491816941F0080181618069194EC2
:102E200000F0080042F2430404900022214630469C
:102E3000FEF793FDDFF8508043F26025002229461B
:102E40004046FEF78AFD0094012402276946304679
:102E500003970194FEF782FC102000900020CDE93A
:102E6000010469463046FEF779FCCDE90054694615
:102E700040460397FEF772FC06B0BDE8F081000003
:102E80000010024000100140000C014010B500226B
:102E900011462520FEF7F2FD2520FEF7E3FD002276
:102EA00011462620FEF7EAFD2620FEF7DBFD002274
:102EB00011462720FEF7E2FD2720FEF7D3FD002272
:102EC00011461E20FEF7DAFD1E20FEF7CBFD002284
:102ED00011463220FEF7D2FD3220FEF7C3FD00225C
:102EE00011460B20FEF7CAFD0B20FEF7BBFD0022AA
:102EF00011460D20FEF7C2FD0D20FEF7B3FD0022A6
:102F000011460F20FEF7BAFD0F20FEF7ABFD0022A1
:102F100011461020FEF7B2FD1020FEF7A3FD00229F
:102F200011461220FEF7AAFDBDE810401220FEF760
:102F300099BD0000114810B50F4901604FF482712E
:102F4000416000218160C1604FF400720161C0E9FD
:102F500005122822C0E90721416281620A21C1626B
:102F6000FFF714F9002805D0BDE81040452104A062
:102F700000F00FBD10BD0000003001403C000020FB
:102F80002E2E2F5372632F7370692E630000000082
:102F900010B51A488AB01849016047210024C0E9D9
:102FA000011440F69F71C0E903148461FFF7ADFB83
:102FB00018B1412112A000F0ECFC079407A90F48BA
:102FC0000894FFF780F918B148210DA000F0E1FC4A
:102FD0006020CDE900040294002269460748049469
:102FE000FFF72BFB18B1512105A000F0D2FC0348DC
:102FF000FFF704FB0AB010BD00040040940000205D
:103000002E2E2F5372632F74696D2E630000000003
:1030100010B5174886B01549016047210024C0E962
:1030200001146321C0E903148461FFF774F918B136
:10303000652110A000F0ADFC4FF48050009069466F
:103040000B48FFF7AFF918B16B210AA000F0A1FC03
:10305000049404A906480594FFF735F9002803D025
:10306000722104A000F095FC06B010BD00080040DD
:10307000D40000202E2E2F5372632F74696D2E639F
:103080000000000010B5184886B0164901604721BD
:103090000024C0E9011440F2E731C0E9031484615F
:1030A000FFF739F918B1842110A000F072FC4FF439
:1030B0008050009069460C48FFF774F918B18A21D6
:1030C0000AA000F066FC049404A907480594FFF7E1
:1030D000FAF8002803D0912104A000F05AFC06B0B1
:1030E00010BD0000000C0040140100202E2E2F53B4
:1030F00072632F74696D2E63000000000D4810B5D7
:103100000B4901604FF4E1314160002181600C22E4
:10311000C160C0E904128161C161FFF77BFC002836
:1031200005D0BDE81040482103A000F032BC10BD1E
:1031300000380140C80100202E2E2F5372632F75D6
:10314000736172742E6300000D4810B50B49016065
:103150004FF4E1314160002181600C22C160C0E97F
:1031600004128161C161FFF755FC002805D0BDE85C
:1031700010405B2103A000F00CBC10BD00440040D7
:10318000080200202E2E2F5372632F757361727404
:103190002E6300000D4810B50B4901604FF4E1317A
:1031A0004160002181600C22C160C0E9041281618C
:1031B000C161FFF72FFC002805D0BDE810406E214B
:1031C00003A000F0E6BB10BD00480040480200200C
:1031D0002E2E2F5372632F75736172742E6300004D
:1031E000FEE770470907090E002806DA00F00F0015
:1031F00000F1E02080F8141D704700F1E02080F815
:1032000000147047704700000148FEF75DBF0000E2
:103210003C00002010B5406A0021C187C186FEF73E
:1032200051FF10BD704710B5FEF7A2FBBDE810407E
:10323000FFF743B830B595B001210804CDE900107F
:103240000024029402250491CDE907504FF4E010C8
:1032500009906846FEF7BAFD00B1FEE70F20CDE900
:103260000A054FF48060CDE90C4002210AA80E94B3
:10327000FEF7AAFC00B1FEE74FF4004011900F9555
:103280000FA8FEF72DFC00B1FEE7FEF743FD4FF45B
:103290007A71B0FBF1F0FEF7FCFF0420FEF7ECFFC3
:1032A00000221146501EFEF7E9FB15B030BD0000AC
:1032B0000D48016841F00101016041680B4A11406D
:1032C000416001680A4A11400160016821F48021CF
:1032D0000160416821F4FE0141604FF41F018160EB
:1032E0000449C00308607047001002400000FFF866
:1032F000FFFFF6FE08ED00E00148FFF7CCB8000044
:10330000940000200148FFF7C6B80000D400002058
:103310000148FFF7C0B8000014010020F0B50268B2
:103320001C4D1D4E1D4FDFF878C01E4B4FF0804ED8
:10333000A84209D0984207D0704505D0B04203D0CA
:10334000B84201D0604503D122F070044A6822439C
:10335000A84209D0984207D0704505D0B04203D0AA
:10336000B84201D0604503D122F44074CA682243B8
:103370004C6922F08002144304608A68C2620A68C1
:103380008262A84201D0984201D1096901630121FA
:103390004161F0BD002C01400004004000080040E5
:1033A000000C00400034014010B50123046A8B403A
:1033B0009C430462036A8A401343036210BD10B544
:1033C000846842EA032224F47F440A432243826051
:1033D00010BD826822F070020A4342F0070181604A
:1033E00070470000F0B5026A22F001020262026A30
:1033F00043688469114E24F073050C68104F2C4308
:1034000022F002058A682A43B04201D0B84205D1B1
:1034100022F00805CA682A4322F00402B04201D013
:10342000B84205D14D6923F440731D438B692B438A
:1034300043608461496841630262F0BD002C014031
:1034400000340140F0B5026A22F010020262026A02
:10345000436884690D6824F4E64444EA05248D68D1
:1034600022F0200242EA05120F4D104EA84201D070
:10347000B04206D1CF6822F0800242EA071222F061
:103480004002A84201D0B04207D14D6923F4406305
:1034900043EA85038D6943EA850343608461496893
:1034A00081630262F0BD0000002C01400034014045
:1034B000F0B5026A22F480720262026A4368C4694B
:1034C00022F4007224F073050C68124E2C438D68B0
:1034D00042EA05220E4DA84201D0B04206D1CF6883
:1034E00022F4006242EA072222F48062A84201D05C
:1034F000B04207D14D6923F4405343EA05138D6967
:1035000043EA05134360C4614968C1630262F0BDC8
:10351000002C01400034014030B5026A22F4805290
:103520000262036A4268C4690D6824F4E64444EA0E
:1035300005248D6823F4005343EA0533084DA8425F
:1035400002D0084DA84204D14D6922F4804242EADB
:1035500085124260C46149680164036230BD0000A5
:10356000002C01400034014010B5046A036A23F0C6
:1035700001030362836923F0F00343EA021324F09A
:103580000A020A438361026210BD10B5036A23F088
:10359000100303628469036A24F4704444EA02322B
:1035A00023F0A00343EA01118261016210BD10B54E
:1035B000406A0021C185C184FFF7A3F910BD70B531
:1035C000446A2068406994F83910C0F3C01000259F
:1035D000212904D118B1E584204600F046F820687E
:1035E000406994F83A10C0F38010222904D118B130
:1035F000E585204600F02BF8E06B40F01000E0631A
:103600002046FFF77EF970BD10B50146406A096893
:103610000968890613D40021C1850168CA6822F4AB
:103620008072CA6001684A6922F001024A61016839
:103630004A6922F040024A61202180F83A10FFF7DF
:103640001DFB10BD10B5406AFFF719FB10BD0168E6
:10365000CA6822F49072CA6001684A6922F00102C5
:103660004A61202180F83A1070470168CA6822F048
:10367000C002CA60202180F83910704710B590F858
:103680003A10222901D0022010BD8168B1F5805F77
:1036900011D00169002901681FD0496801F07F033A
:1036A000816A4A1C82620B70C18D491E0904090C93
:1036B000C18518D02BE00269816A002A026852682D
:1036C00005D0D2B20A80816A491C8162ECE7C2F35C
:1036D00008020A80816A891CF7E74A68816A4B1CE4
:1036E00083620A70E0E70168CA6822F02002CA60BB
:1036F0000168CA6822F48072CA6001684A6922F0CF
:1037000001024A61202180F83A10FFF7B7FA002041
:1037100010BD00002DE9F041044600680169E2682F
:1037200021F4405111430161A1682069014360699E
:1037300001432068C26841F20C639A430A43C260A5
:1037400020684169A26921F44071114341614C49EB
:1037500020686426322788423CD1FEF7F1FA00EB5C
:10376000C00101EB001061688900B0FBF1F5FEF7C4
:10377000E7FA00EBC00101EB00106168B846890070
:10378000B0FBF1F0B0FBF6F06FF01801484305EB29
:10379000800107EB0110B0FBF6F000F0F005FEF73A
:1037A000CFFA00EBC00101EB001061688900B0FBAB
:1037B000F1F0B0FBF6F005EB0015FEF7C1FA00EBF7
:1037C000C00101EB001061688900B0FBF1F7FEF762
:1037D000B7FA3BE0FEF7A4FA00EBC00101EB0010E2
:1037E00061688900B0FBF1F5FEF79AFA00EBC001C1
:1037F00001EB00106168B8468900B0FBF1F0B0FB46
:10380000F6F06FF01801484305EB800107EB01105B
:10381000B0FBF6F000F0F005FEF782FA00EBC00115
:1038200001EB001061688900B0FBF1F0B0FBF6F02D
:1038300005EB0015FEF774FA00EBC00101EB001078
:1038400061688900B0FBF1F7FEF76AFA00EBC0018E
:1038500001EB001061688900B0FBF1F0B0FBF6F0FD
:103860006FF01801484307EB800108EB0110B0FB33
:10387000F6F0216800F00F0028448860BDE8F08170
:103880000038014090F83910212901D002207047FA
:103890008168B1F5805F016A0BD04A1C0262026840
:1038A00009785160C18C491E0904090CC1840ED0ED
:1038B00017E009880268C1F3080151600169002915
:1038C000016A02D0491C0162ECE7891CFBE7016830
:1038D000CA6822F08002CA600068C16841F04001F5
:1038E000C160002070472DE9F0411E46174688460A
:1038F0000446069D1CE0681C1AD025B1FEF732F87C
:10390000801BA84214D92068C16821F4D071C1601D
:103910002068416921F001014161202084F83900CB
:1039200084F83A00002084F838000320BDE8F081D4
:103930002068016838EA010004D00020B842DAD0DB
:103940000020F3E70120F9E710B50448FCF76EFD0D
:10395000BDE810400148FEF7D5BF0000C8010020B7
:1039600010B50448FDF7CEF8BDE810400148FEF759
:10397000C9BF00000802002010B50448FDF73CF95B
:10398000BDE810400148FEF7BDBF0000480200201E
:10399000FEE7FEE702E008C8121F08C1002AFAD1BC
:1039A00070477047002001E001C1121F002AFBD1BF
:1039B000704710B503460078012203E09C5C60402C
:1039C000521C92B28A42F9D310BD0000FDF7D8FF15
:1039D000FFF730FCFFF702FAFFF7F2F9FFF7B0F953
:1039E000FFF7A8FAFFF714FBFFF74CFBFFF786FB86
:1039F000FFF7AAFBFFF7CEFBFFF7CAFAFFF746FA7D
:103A00002548FEF7C3FC2548FEF7C0FC00212448EA
:103A1000FEF7B6FE0A2223492348FDF7CBFBFDF74C
:103A200053F8FCF78BFDFCF7EDFCFDF74FF8FDF7C5
:103A3000C7F840F6D86640F63C7700251B4CFDF7EA
:103A400009F8FCF783FDFDF711F8FCF753FEFDF7CD
:103A5000F7F8FDF717F8FCF7C1FEFDF7F1F8FCF7F2
:103A600019FD607910B16571FCF72EFC607820B10A
:103A70006089B04200D967816089FDF785F92078B7
:103A800010B1FDF763F82570A0790028D7D0A57193
:103A9000FDF704F8D3E70000D40000201401002053
:103AA0009400002054030020540100200000002056
:103AB00000000000000000000102030406070809DE
:103AC0000000000001020304E83A000800000020A2
:103AD0003C00000094390008243B00083C00002012
:103AE0005C140000A4390008000000000000000081
:103AF00000000000000000000000000000000000C6
:103B000000000000000000000000000000000000B5
:103B10000000000000A24A040100000010000000A4
:043B200000000000A1
:0400000508000131BD
:00000001FF
